{
  "contractName": "MyContract",
  "abi": [
    {
      "inputs": [],
      "name": "extractor",
      "outputs": [
        {
          "internalType": "bytes32",
          "name": "",
          "type": "bytes32"
        }
      ],
      "stateMutability": "view",
      "type": "function"
    }
  ],
  "bytecode": "0x608060405234801561001057600080fd5b506102ea806100206000396000f3fe608060405234801561001057600080fd5b506004361061002b5760003560e01c806319d16c4914610030575b600080fd5b61003861004e565b6040516100459190610101565b60405180910390f35b6000806000606060006001436100649190610155565b9350834092508260405160200161007b91906101aa565b604051602081830303815290604052915060028260405161009c919061023f565b602060405180830381855afa1580156100b9573d6000803e3d6000fd5b5050506040513d601f19601f820116820180604052508101906100dc9190610287565b90508094505050505090565b6000819050919050565b6100fb816100e8565b82525050565b600060208201905061011660008301846100f2565b92915050565b6000819050919050565b7f4e487b7100000000000000000000000000000000000000000000000000000000600052601160045260246000fd5b60006101608261011c565b915061016b8361011c565b92508282101561017e5761017d610126565b5b828203905092915050565b6000819050919050565b6101a461019f826100e8565b610189565b82525050565b60006101b68284610193565b60208201915081905092915050565b600081519050919050565b600081905092915050565b60005b838110156101f95780820151818401526020810190506101de565b83811115610208576000848401525b50505050565b6000610219826101c5565b61022381856101d0565b93506102338185602086016101db565b80840191505092915050565b600061024b828461020e565b915081905092915050565b600080fd5b610264816100e8565b811461026f57600080fd5b50565b6000815190506102818161025b565b92915050565b60006020828403121561029d5761029c610256565b5b60006102ab84828501610272565b9150509291505056fea2646970667358221220daa05d87a21a711c5e145a4c928a6f54b2192cc1c3b4343097cf53a5b1f367db64736f6c634300080d0033",
  "immutableReferences": {},
  "source": "// SPDX-License-Identifier: MIT\npragma solidity 0.8.13;\n\n// Chainlink -> use this as a middleware to directly get block hash\n\ncontract MyContract {\n\n    function extractor() public view returns(bytes32) {\n        uint _previousBlockNumber;\n        bytes32 _previousBlockHash; // this is \"m\" and is of length 256 bits \n        bytes memory _hashinbytes;\n        bytes32 _hashOfHash; // this is Hash of m\n        _previousBlockNumber = uint(block.number - 1);\n        _previousBlockHash = bytes32(blockhash(_previousBlockNumber)); \n        _hashinbytes = abi.encodePacked(_previousBlockHash);\n        _hashOfHash = sha256(_hashinbytes);\n        return (_hashOfHash);\n    }  \n\n}",
  "sourcePath": "/home/vibodh/test_contract/contracts/Beacon.sol",
  "compiler": {
    "name": "solc",
    "version": "0.8.13+commit.abaa5c0e.Emscripten.clang"
  },
  "schemaVersion": "3.4.7",
  "updatedAt": "2022-04-30T15:36:00.108Z",
  "devdoc": {
    "kind": "dev",
    "methods": {},
    "version": 1
  },
  "userdoc": {
    "kind": "user",
    "methods": {},
    "version": 1
  }
}